{
    "contractName": "LiquidateLoan",
    "abi": [
        {
            "inputs": [
                {
                    "internalType": "contract ILendingPoolAddressesProvider",
                    "name": "_addressProvider",
                    "type": "address"
                },
                {
                    "internalType": "contract IUniswapV2Router02",
                    "name": "_uniswapV2Router",
                    "type": "address"
                }
            ],
            "stateMutability": "nonpayable",
            "type": "constructor"
        },
        {
            "anonymous": false,
            "inputs": [
                {
                    "indexed": false,
                    "internalType": "string",
                    "name": "stringFailure",
                    "type": "string"
                }
            ],
            "name": "ErrorHandled",
            "type": "event"
        },
        {
            "anonymous": false,
            "inputs": [
                {
                    "indexed": true,
                    "internalType": "address",
                    "name": "previousOwner",
                    "type": "address"
                },
                {
                    "indexed": true,
                    "internalType": "address",
                    "name": "newOwner",
                    "type": "address"
                }
            ],
            "name": "OwnershipTransferred",
            "type": "event"
        },
        {
            "inputs": [
                {
                    "internalType": "address",
                    "name": "_assetToLiquidate",
                    "type": "address"
                },
                {
                    "internalType": "uint256",
                    "name": "_flashAmt",
                    "type": "uint256"
                },
                {
                    "internalType": "address",
                    "name": "_collateral",
                    "type": "address"
                },
                {
                    "internalType": "address",
                    "name": "_userToLiquidate",
                    "type": "address"
                },
                {
                    "internalType": "uint256",
                    "name": "_amountOutMin",
                    "type": "uint256"
                },
                {
                    "internalType": "address[]",
                    "name": "_swapPath",
                    "type": "address[]"
                }
            ],
            "name": "executeFlashLoans",
            "outputs": [],
            "stateMutability": "nonpayable",
            "type": "function"
        },
        {
            "inputs": [
                {
                    "internalType": "address[]",
                    "name": "assets",
                    "type": "address[]"
                },
                {
                    "internalType": "uint256[]",
                    "name": "amounts",
                    "type": "uint256[]"
                },
                {
                    "internalType": "uint256[]",
                    "name": "premiums",
                    "type": "uint256[]"
                },
                {
                    "internalType": "address",
                    "name": "",
                    "type": "address"
                },
                {
                    "internalType": "bytes",
                    "name": "params",
                    "type": "bytes"
                }
            ],
            "name": "executeOperation",
            "outputs": [
                {
                    "internalType": "bool",
                    "name": "",
                    "type": "bool"
                }
            ],
            "stateMutability": "nonpayable",
            "type": "function"
        },
        {
            "inputs": [],
            "name": "isOwner",
            "outputs": [
                {
                    "internalType": "bool",
                    "name": "",
                    "type": "bool"
                }
            ],
            "stateMutability": "view",
            "type": "function"
        },
        {
            "inputs": [
                {
                    "internalType": "address",
                    "name": "_collateral",
                    "type": "address"
                },
                {
                    "internalType": "address",
                    "name": "_liquidate_asset",
                    "type": "address"
                },
                {
                    "internalType": "address",
                    "name": "_userToLiquidate",
                    "type": "address"
                },
                {
                    "internalType": "uint256",
                    "name": "_amount",
                    "type": "uint256"
                },
                {
                    "internalType": "bool",
                    "name": "_receiveaToken",
                    "type": "bool"
                }
            ],
            "name": "liquidateLoan",
            "outputs": [],
            "stateMutability": "nonpayable",
            "type": "function"
        },
        {
            "inputs": [],
            "name": "owner",
            "outputs": [
                {
                    "internalType": "address",
                    "name": "",
                    "type": "address"
                }
            ],
            "stateMutability": "view",
            "type": "function"
        },
        {
            "inputs": [],
            "name": "renounceOwnership",
            "outputs": [],
            "stateMutability": "nonpayable",
            "type": "function"
        },
        {
            "inputs": [
                {
                    "internalType": "address",
                    "name": "asset_from",
                    "type": "address"
                },
                {
                    "internalType": "uint256",
                    "name": "amountOutMin",
                    "type": "uint256"
                },
                {
                    "internalType": "address[]",
                    "name": "swapPath",
                    "type": "address[]"
                }
            ],
            "name": "swapToBarrowedAsset",
            "outputs": [],
            "stateMutability": "nonpayable",
            "type": "function"
        },
        {
            "inputs": [
                {
                    "internalType": "address",
                    "name": "newOwner",
                    "type": "address"
                }
            ],
            "name": "transferOwnership",
            "outputs": [],
            "stateMutability": "nonpayable",
            "type": "function"
        },
        {
            "stateMutability": "payable",
            "type": "receive"
        }
    ],
    "bytecode": "608060405234801561001057600080fd5b506040516115393803806115398339818101604052604081101561003357600080fd5b508051602091820151600080546001600160a01b0319166001600160a01b03841690811790915560408051630261bf8b60e01b81529051939492938593630261bf8b9260048082019391829003018186803b15801561009157600080fd5b505afa1580156100a5573d6000803e3d6000fd5b505050506040513d60208110156100bb57600080fd5b5051600180546001600160a01b039283166001600160a01b03199182161790915560028054909116331790819055604051911691506000907f8be0079c531659141344cd1fd0a4f28419497f9722a3daafe3b4186f6b6457e0908290a3600380546001600160a01b0319166001600160a01b0392909216919091179055506113f1806101486000396000f3fe60806040526004361061007f5760003560e01c8063920f5c841161004e578063920f5c841461014d5780639b770a64146102c5578063a1f424e61461039e578063f2fde38b1461046157610086565b806339908e921461008b578063715018a6146100de5780638da5cb5b146100f35780638f32d59b1461012457610086565b3661008657005b600080fd5b34801561009757600080fd5b506100dc600480360360a08110156100ae57600080fd5b506001600160a01b038135811691602081013582169160408201351690606081013590608001351515610494565b005b3480156100ea57600080fd5b506100dc6105e2565b3480156100ff57600080fd5b50610108610685565b604080516001600160a01b039092168252519081900360200190f35b34801561013057600080fd5b50610139610695565b604080519115158252519081900360200190f35b34801561015957600080fd5b50610139600480360360a081101561017057600080fd5b810190602081018135600160201b81111561018a57600080fd5b82018360208201111561019c57600080fd5b803590602001918460208302840111600160201b831117156101bd57600080fd5b919390929091602081019035600160201b8111156101da57600080fd5b8201836020820111156101ec57600080fd5b803590602001918460208302840111600160201b8311171561020d57600080fd5b919390929091602081019035600160201b81111561022a57600080fd5b82018360208201111561023c57600080fd5b803590602001918460208302840111600160201b8311171561025d57600080fd5b919390926001600160a01b0383351692604081019060200135600160201b81111561028757600080fd5b82018360208201111561029957600080fd5b803590602001918460018302840111600160201b831117156102ba57600080fd5b5090925090506106a6565b3480156102d157600080fd5b506100dc600480360360c08110156102e857600080fd5b6001600160a01b03823581169260208101359260408201358316926060830135169160808101359181019060c0810160a0820135600160201b81111561032d57600080fd5b82018360208201111561033f57600080fd5b803590602001918460208302840111600160201b8311171561036057600080fd5b9190808060200260200160405190810160405280939291908181526020018383602002808284376000920191909152509295506109e8945050505050565b3480156103aa57600080fd5b506100dc600480360360608110156103c157600080fd5b6001600160a01b0382351691602081013591810190606081016040820135600160201b8111156103f057600080fd5b82018360208201111561040257600080fd5b803590602001918460208302840111600160201b8311171561042357600080fd5b919080806020026020016040519081016040528093929190818152602001838360200280828437600092019190915250929550610d70945050505050565b34801561046d57600080fd5b506100dc6004803603602081101561048457600080fd5b50356001600160a01b031661109d565b6001546040805163095ea7b360e01b81526001600160a01b0392831660048201526024810185905290519186169163095ea7b3916044808201926020929091908290030181600087803b1580156104ea57600080fd5b505af11580156104fe573d6000803e3d6000fd5b505050506040513d602081101561051457600080fd5b5051610558576040805162461bcd60e51b815260206004820152600e60248201526d20b8383937bb30b61032b93937b960911b604482015290519081900360640190fd5b6001546040805162a718a960e01b81526001600160a01b038881166004830152878116602483015286811660448301526064820186905284151560848301529151919092169162a718a99160a480830192600092919082900301818387803b1580156105c357600080fd5b505af11580156105d7573d6000803e3d6000fd5b505050505050505050565b6105ea610695565b61063b576040805162461bcd60e51b815260206004820181905260248201527f4f776e61626c653a2063616c6c6572206973206e6f7420746865206f776e6572604482015290519081900360640190fd5b6002546040516000916001600160a01b0316907f8be0079c531659141344cd1fd0a4f28419497f9722a3daafe3b4186f6b6457e0908390a3600280546001600160a01b0319169055565b6002546001600160a01b03165b90565b6002546001600160a01b0316331490565b6000808a8a60008181106106b657fe5b905060200201356001600160a01b031690506000898960008181106106d757fe5b9050602002013590506000888860008181106106ef57fe5b9050602002013590506000806000606060008a8a60a081101561071157600080fd5b6001600160a01b03823581169260208101359091169160408201359190810190608081016060820135600160201b81111561074b57600080fd5b82018360208201111561075d57600080fd5b803590602001918460208302840111600160201b8311171561077e57600080fd5b9190808060200260200160405190810160405280939291908181526020018383602002808284376000920182905250999e50979c50959a50909850503595506107d2948a94508d93508992508c9150610494565b6107dd858484610d70565b6000610863896001600160a01b03166370a08231306040518263ffffffff1660e01b815260040180826001600160a01b0316815260200191505060206040518083038186803b15801561082f57600080fd5b505afa158015610843573d6000803e3d6000fd5b505050506040513d602081101561085957600080fd5b5051898985611102565b9050600081116108a6576040805162461bcd60e51b8152602060048201526009602482015268139bc81c1c9bd99a5d60ba1b604482015290519081900360640190fd5b886001600160a01b031663a9059cbb6108bd610685565b836040518363ffffffff1660e01b815260040180836001600160a01b0316815260200182815260200192505050602060405180830381600087803b15801561090457600080fd5b505af1158015610918573d6000803e3d6000fd5b505050506040513d602081101561092e57600080fd5b506000905061094860016109428b8b611151565b90611151565b6001546040805163095ea7b360e01b81526001600160a01b039283166004820152602481018490529051929350908c169163095ea7b3916044808201926020929091908290030181600087803b1580156109a157600080fd5b505af11580156109b5573d6000803e3d6000fd5b505050506040513d60208110156109cb57600080fd5b5060019b5050505050505050505050509998505050505050505050565b6109f0610695565b610a41576040805162461bcd60e51b815260206004820181905260248201527f4f776e61626c653a2063616c6c6572206973206e6f7420746865206f776e6572604482015290519081900360640190fd5b604080516001808252818301909252606091602080830190803683370190505090508681600081518110610a7157fe5b6001600160a01b0392909216602092830291909101909101526040805160018082528183019092526060918160200160208202803683370190505090508681600081518110610abc57fe5b6020908102919091010152604080516001808252818301909252606091816020016020820280368337019050509050600081600081518110610afa57fe5b60200260200101818152505060608787878760405160200180856001600160a01b03168152602001846001600160a01b0316815260200183815260200180602001828103825283818151815260200191508051906020019060200280838360005b83811015610b73578181015183820152602001610b5b565b50505050905001955050505050506040516020818303038152906040529050600160009054906101000a90046001600160a01b03166001600160a01b031663ab9c4b5d30868686308760006040518863ffffffff1660e01b815260040180886001600160a01b03168152602001806020018060200180602001876001600160a01b031681526020018060200186815260200185810385528b818151815260200191508051906020019060200280838360005b83811015610c3d578181015183820152602001610c25565b5050505090500185810384528a818151815260200191508051906020019060200280838360005b83811015610c7c578181015183820152602001610c64565b50505050905001858103835289818151815260200191508051906020019060200280838360005b83811015610cbb578181015183820152602001610ca3565b50505050905001858103825287818151815260200191508051906020019080838360005b83811015610cf7578181015183820152602001610cdf565b50505050905090810190601f168015610d245780820380516001836020036101000a031916815260200191505b509b505050505050505050505050600060405180830381600087803b158015610d4c57600080fd5b505af1158015610d60573d6000803e3d6000fd5b5050505050505050505050505050565b604080516370a0823160e01b8152306004820152905160784201916000916001600160a01b038716916370a08231916024808301926020929190829003018186803b158015610dbe57600080fd5b505afa158015610dd2573d6000803e3d6000fd5b505050506040513d6020811015610de857600080fd5b50516003546040805163095ea7b360e01b81526001600160a01b039283166004820152600019602482015290519293509087169163095ea7b3916044808201926020929091908290030181600087803b158015610e4457600080fd5b505af1158015610e58573d6000803e3d6000fd5b505050506040513d6020811015610e6e57600080fd5b50506003546040516338ed173960e01b8152600481018381526024820187905230606483018190526084830186905260a060448401908152875160a485015287516001600160a01b03909516946338ed17399487948b948b9490938b9360c401906020878101910280838360005b83811015610ef4578181015183820152602001610edc565b505050509050019650505050505050600060405180830381600087803b158015610f1d57600080fd5b505af1925050508015610fdd57506040513d6000823e601f3d908101601f191682016040526020811015610f5057600080fd5b8101908080516040519392919084600160201b821115610f6f57600080fd5b908301906020820185811115610f8457600080fd5b82518660208202830111600160201b82111715610fa057600080fd5b82525081516020918201928201910280838360005b83811015610fcd578181015183820152602001610fb5565b5050505090500160405250505060015b61109457610fe96112f0565b80610ff4575061108f565b7f4f17d5cf0427b4fe5e5649c407d3021315cfaa7216c9e58c369ef3937c40801a816040518080602001828103825283818151815260200191508051906020019080838360005b8381101561105357818101518382015260200161103b565b50505050905090810190601f1680156110805780820380516001836020036101000a031916815260200191505b509250505060405180910390a1505b611096565b505b5050505050565b6110a5610695565b6110f6576040805162461bcd60e51b815260206004820181905260248201527f4f776e61626c653a2063616c6c6572206973206e6f7420746865206f776e6572604482015290519081900360640190fd5b6110ff816111b2565b50565b6000611148611115836109428787611151565b604080518082019091526014815273373790383937b334ba39903a37903932ba3ab93760611b6020820152879190611253565b95945050505050565b6000828201838110156111ab576040805162461bcd60e51b815260206004820152601b60248201527f536166654d6174683a206164646974696f6e206f766572666c6f770000000000604482015290519081900360640190fd5b9392505050565b6001600160a01b0381166111f75760405162461bcd60e51b81526004018080602001828103825260268152602001806113966026913960400191505060405180910390fd5b6002546040516001600160a01b038084169216907f8be0079c531659141344cd1fd0a4f28419497f9722a3daafe3b4186f6b6457e090600090a3600280546001600160a01b0319166001600160a01b0392909216919091179055565b600081848411156112e25760405162461bcd60e51b81526004018080602001828103825283818151815260200191508051906020019080838360005b838110156112a757818101518382015260200161128f565b50505050905090810190601f1680156112d45780820380516001836020036101000a031916815260200191505b509250505060405180910390fd5b505050900390565b60e01c90565b600060443d101561130057610692565b600481823e6308c379a061131482516112ea565b1461131e57610692565b6040513d600319016004823e80513d67ffffffffffffffff816024840111818411171561134e5750505050610692565b828401925082519150808211156113685750505050610692565b503d8301602082840101111561138057505050610692565b601f01601f191681016020016040529150509056fe4f776e61626c653a206e6577206f776e657220697320746865207a65726f2061646472657373a2646970667358221220492547e409bb34fa261a2b92eb2c4ec67842da7c3c1c52f05a5aa5c68404906a64736f6c634300060c0033",
    "sourcePath": "/Users/tianze/Code/swap/liquidatecontract/LiquidateLoan.sol",
    "compiler": {
        "name": "solc",
        "version": "0.6.12+commit.27d51765"
    },
    "functionHashes": {
        "executeFlashLoans(address,uint256,address,address,uint256,address[])": "9b770a64",
        "executeOperation(address[],uint256[],uint256[],address,bytes)": "920f5c84",
        "isOwner()": "8f32d59b",
        "liquidateLoan(address,address,address,uint256,bool)": "39908e92",
        "owner()": "8da5cb5b",
        "renounceOwnership()": "715018a6",
        "swapToBarrowedAsset(address,uint256,address[])": "a1f424e6",
        "transferOwnership(address)": "f2fde38b"
    },
    "gasEstimates": {
        "creation": {
            "codeDepositCost": "1021000",
            "executionCost": "infinite",
            "totalCost": "infinite"
        },
        "external": {
            "executeFlashLoans(address,uint256,address,address,uint256,address[])": "infinite",
            "executeOperation(address[],uint256[],uint256[],address,bytes)": "infinite",
            "isOwner()": "1094",
            "liquidateLoan(address,address,address,uint256,bool)": "infinite",
            "owner()": "1083",
            "renounceOwnership()": "24212",
            "swapToBarrowedAsset(address,uint256,address[])": "infinite",
            "transferOwnership(address)": "infinite"
        },
        "internal": {
            "calcProfits(uint256,uint256,uint256,uint256)": "infinite"
        }
    }
}